:10000000E07F00103D8300006D830000BD420000D2
:10001000C5420000CD420000D542000000000000B3
:10002000000000000000000000000000514A000035
:100030007983000000000000BB4A0000CB4A0000AA
:100040007F8300007F8300007F8300007F830000A8
:100050007F8300007F8300007F8300007F83000098
:100060007F8300007F8300007F8300007F83000088
:100070007F8300007F8300007F8300007F83000078
:100080007F8300007F8300007F8300007F83000068
:100090007F8300007F8300007F8300007F83000058
:1000A0007F8300007F8300007F8300007F83000048
:1000B0007F8300007F8300007F8300007F83000038
:1000C0007F8300007F8300007F830000000000002A
:1000D0000000000000000000000000000000000020
:1000E0000000000000000000000000000000000010
:1000F0000000000000000000000000000000000000
:1001000000000000000000000000000000000000EF
:1002F000000000000000000000000000FFFFFFFF02
:1003000010B5054C237833B9044B13B10448AFF34F
:1003100000800123237010BD400C0010000000007D
:10032000D432010008B5034B1BB103490348AFF3B6
:10033000008008BD00000000440C0010D432010011
:10034000154B002B08BF134B9D46A3F5803A0021A7
:100350008B460F461348144A121A0AF0D7FD0F4B6A
:10036000002B00D098470E4B002B00D09847002060
:10037000002104000D000D48002802D00C4803F0B5
:10038000A5FD0AF009F92000290004F073F903F033
:1003900093FD00BF00000800E07F00100000000097
:1003A00099450000400C0010A8290010CD3E000027
:1003B0000000000082B001900091009B184602B03E
:1003C0007047000000B583B001900091019B1B684D
:1003D000B3F1FF3F04D124220A490B4802F0FAFB93
:1003E000009B002B05D0019BDB68019A52681A60C4
:1003F00004E0019B1B69019A52681A6000BF03B0B8
:100400005DF804FBAC1A0100EC1A010000B583B0E2
:100410000190019B1B68B3F1FF3F04D12C220949D5
:10042000094802F0D7FB019B5B691A68019B5B6876
:100430001340002B01D0012300E00023184603B035
:100440005DF804FBAC1A0100EC1A010000B583B0A2
:1004500001900091019B1A46002313605360936042
:10046000D36013615361019B0099184601F0BAF9FA
:10047000019B184603B05DF804FB00B583B0019002
:100480000091019B00991846FFF79CFF00BF03B045
:100490005DF804FB00B583B00190019B1846FFF79F
:1004A000B5FF0346184603B05DF804FB00B583B002
:1004B0000190009100990198FFF7DFFF019B18461A
:1004C00003B05DF804FB00B583B001900198FFF71D
:1004D000E1FF0346184603B05DF804FB00B583B0A6
:1004E0000190019B1A460023136053609360D36010
:1004F000019B08221A73019B00229A73019B002220
:100500005A73019B00221A60019B043308220021C8
:1005100018460AF0FBFC019B184603B05DF804FB8B
:1005200000B585B00390029101928DF803309DF8DB
:10053000033003F00F03DAB2039B1A73039B9DF899
:1005400018209A73039B9DF81C205A73039B029AF0
:100550001A60039B04339DF80320019918460AF0A2
:10056000FDFB039B184605B05DF804FB00B583B0A6
:100570000190019B184600F08FFF019800F06FF981
:10058000084A019B1A60019B28330021184600F09D
:1005900027F9019B012283F83820019B184603B0FC
:1005A0005DF804FB901C010010B588B00390029127
:1005B000019204AB0299184600F03AF90B490198F0
:1005C00010F04CFF0346184611F0D6F803460C46CF
:1005D00004A91A462346039800F00AF804AB18460B
:1005E00000F015F900BF08B010BD00BF0024744929
:1005F00000B585B003900291CDE9002302F0CAFB5B
:10060000039B2833184600F036F9034683F00103B4
:10061000DBB2002B06D0039B93F83830002B01D0BF
:10062000012300E00023002B01D001F09DF9039B82
:1006300028330299184600F02AF9DDE900230398CF
:1006400000F0DBFE02F0C0FB00BF05B05DF804FB6C
:1006500000B583B001900B4A019B1A60019800F02D
:1006600099FE019B2833184600F0D1F8019800F05C
:10067000FCF8019B184600F049FF019B184603B0A7
:100680005DF804FB901C010000B583B00190019857
:10069000FFF7DEFF019803F09DFC019B184603B0B5
:1006A0005DF804FB00B587B01E480AF08FFC02A875
:1006B000002301930023009301231B4A40F2395188
:1006C000FFF72EFF059B009302AB0ECB174800F0FF
:1006D000ADFA0346002B14BF01230023DBB2002B2D
:1006E0000ED013480AF072FC0F4B1B780133DAB2BC
:1006F0000D4B1A700C4B1B7819460E480AF066FC1D
:100700000D48FFF7E0FE0346002B0CBF012300233A
:10071000DBB219460848FFF7C9FE00BF07B05DF815
:1007200004FB00BF041B0100E80E0010680D001060
:100730000C1B0100181B0100080D001000B589B04A
:100740001F480AF043FC04AB1E49184600F048F865
:1007500004AB4FF07E5219461B48FFF725FF04AB50
:10076000184600F054F86B461846FFF7B7FE1748D6
:100770000AF02CFC6B4600221946154800F07BFA63
:100780000346002B14BF01230023DBB2002B12D041
:100790009DF8043019460F480AF018FC0E48FFF780
:1007A00092FE0346002B0CBF01230023DBB2194647
:1007B0000948FFF77BFE094803F06EFCD7E700BF4E
:1007C0002C1B0100A5060000C80C0010341B010002
:1007D000280E00103C1B0100200D0010CDCC4C3E1B
:1007E00000B583B001900091009B002B05D1102231
:1007F000002101980AF08AFB04E06B461946019833
:1008000000F062F8019B184603B05DF804FB00B5E8
:1008100083B00190019BDB68002B04D0019BDB6857
:100820009B6801989847019B184603B05DF804FB4C
:1008300000B583B001900091009BDB68002B05D0D0
:10084000009BDB685B68009901989847009BDA6819
:10085000019BDA60019B184603B05DF804FB82B08F
:100860000190019B184602B0704782B00190019B35
:10087000184602B0704782B00190019BDB68002BE4
:1008800014BF01230023DBB2184602B0704700B545
:1008900083B001900091019A009B9A420ED001987A
:1008A000FFF7B5FF019B19461020FFF783FD0346B4
:1008B000002B03D000991846FFF7BAFF019B18469A
:1008C00003B05DF804FB000000B583B00190009117
:1008D0001022002101980AF019FB019B19460420FF
:1008E000FFF768FD0346002B02D0009A12681A60D9
:1008F000019B034ADA6000BF03B05DF804FB00BF50
:10090000541B010000B583B00190019B1B68984700
:1009100000BF03B05DF804FB00B583B00190009107
:10092000019B19460420FFF745FD0346002B02D02A
:10093000009A12681A6000BF03B05DF804FB82B031
:10094000019000BF02B0704700B583B001900F4A1C
:10095000019B1A600E4A019B1A630E4A019B5A635F
:10096000019B4833184603F08DFC019800F0A4F871
:10097000019B3033184601F0FFFF019B184600F041
:10098000B5FC019B184603B05DF804FBE81B0100B1
:10099000081C0100681C0100A0F13000D4E7A0F1A0
:1009A0003400D1E700B583B001900198FFF7CCFF88
:1009B000019803F00FFB019B184603B05DF804FBA0
:1009C000A0F13000EEE7A0F13400EBE700B585B010
:1009D00003900291039B012B3ED1029B4FF6FF72C5
:1009E000934239D14FF41653009300231C4A1D49FA
:1009F0001D4800F0EDFA1D4A1D491B4803F054FA4A
:100A00001C48FFF7B3FD194A1B491A4803F04CFA7A
:100A10001A491B48FFF71AFD1A491B48FFF716FD34
:100A20001A491B48FFF712FD1A491B48FFF70EFD34
:100A30001A4A1B491B4800F04DF80C4A1A4919483C
:100A400003F032FA194A1A491A4800F043F8074AE3
:100A50001549184803F028FA00BF05B05DF804FBFB
:100A600003C0092002C009205C0C0010C80000105F
:100A700049090000C80C00105106000032C00920CE
:100A8000080D001034C00920200D001035C00920C9
:100A9000380D001037C00920500D001001C009208A
:100AA00000C00920680D0010810B000005C009205E
:100AB00004C00920280E001082B00190019B184646
:100AC00002B0704708B54FF6FF710120FFF77EFFB7
:100AD00008BD000030B58BB00390029101920398DD
:100AE00000F090F9244A039B1A60039B00225A608D
:100AF000039B00229A60039B0C3308241D46002CA4
:100B000006DB00212846FFF76BFE1035013CF6E7B7
:100B1000039B9C33184603F01FFB00230993099B9A
:100B2000082B17D8099B1B010833039A13441C1D7B
:100B300005AB00211846FFF753FE05AB19462046CA
:100B4000FFF7A5FE05AB1846FFF761FE099B0133D1
:100B50000993E4E7039B0433019A0299184607F0CE
:100B600043FA039B0433039A0449184607F05CF8E0
:100B7000039B18460BB030BD941B01008F0D000085
:100B800010B588B00190214A019B1A600023079399
:100B9000079B082B13DC03AB00211846FFF720FE50
:100BA000079BDAB203AB1946019800F082F803AB59
:100BB0001846FFF72CFE079B01330793E8E7019BDC
:100BC0000433184607F044F8019B0433184607F035
:100BD0001DFA019B9C33184603F054FB019B0C3318
:100BE000002B0CD0019B0C3303F19004019B0C33C0
:100BF0009C4204D0103C2046FFF709FEF6E701981E
:100C000000F006F9019B184608B010BD941B0100C6
:100C100000B583B001900198FFF7B2FF019803F08F
:100C2000D9F9019B184603B05DF804FB84B000B508
:100C300087B0039009A880E80E00039B1B68083367
:100C40001B6803989847039B181D002301930C9B76
:100C5000009309AB0ECB07F029FA0590039B1B68A4
:100C60000C331B6803989847059B184607B05DF83E
:100C700004EB04B0704700B587B003900291019275
:100C8000039B1B6808331B6803989847039B043336
:100C90000299019A184607F0E3FA0590039B1B6836
:100CA0000C331B6803989847059B184607B05DF8FE
:100CB00004FB10B588B00390029113468DF80730FD
:100CC000039B1B6808331B68039898470298FFF73B
:100CD000D2FD0346002B25D09DF807301B010833B9
:100CE000039A134404331846FFF7C5FD034683F007
:100CF0000103DBB2002B01D000F036FE9DF8073077
:100D00001B010833039A1344043302991846FFF772
:100D1000BEFD039B04339DF807100122184606F020
:100D2000B9FF2BE09DF807301B010833039A1344E9
:100D300004331846FFF79FFD0346002B01D000F057
:100D400039FE9DF807301B010833039A13441C1D1C
:100D500004AB00211846FFF743FD04AB19462046BB
:100D6000FFF795FD04AB1846FFF751FD039B0433D5
:100D70009DF807100022184606F08CFF039B1B68A5
:100D80000C331B680398984700BF08B010BD00B52E
:100D900085B001900B468DF80330019B03939DF8BD
:100DA00003301B010833039A134404331846FFF73A
:100DB00062FD0346002B09D09DF803301B01083368
:100DC000039A13440433184600F028F800BF05B016
:100DD0005DF804FB00B583B00190019B9C3318467D
:100DE00003F006FA00BF03B05DF804FB00B583B062
:100DF0000190019B9C33184603F022FA00BF03B018
:100E00005DF804FB82B00190019B184602B0704768
:100E100082B00190019B184602B0704700B583B0C4
:100E20000190019BDB68002B05D140F23922064975
:100E3000064801F0CFFE019BDB681B6801989847CC
:100E400000BF03B05DF804FB601B0100841B0100C0
:100E500008B5074B1B68002B07D0054B1B684FF0EC
:100E6000FF31184605F050FB00E000BF08BD00BF91
:100E70003019001008B5064B1B68002B05D0044B39
:100E80001B68184605F06AFB00E000BF08BD00BF04
:100E90003019001000B583B00190019800F006F8F9
:100EA0000346184603B05DF804FB000010B582B09D
:100EB0000190019B1B68002B18D1FFF7C9FF019B14
:100EC0001B68002B10D1019B043319462420FFF727
:100ED00071FA0446002C04D0204603F03DF9224666
:100EE00000E02246019B1A60FFF7C4FF019B1A68CD
:100EF000019B04339A4204D066220449044801F05D
:100F000069FE019B1B68184602B010BDA41B0100BE
:100F1000CC1B010000B583B001900198FFF77EFF64
:100F200000BF03B05DF804FB00B585B003900291EB
:100F30000192039B1B6810331B68019A0299039866
:100F400098470346184605B05DF804FB00B583B02A
:100F50000190019B1B6818331B6801989847034652
:100F6000184603B05DF804FB00B583B00190019B07
:100F70001B6828331B68019898470346184603B03E
:100F80005DF804FB82B001900B468DF803309DF8AC
:100F90000330002B01D0002301E06FF01803184646
:100FA00002B0704782B001900123184602B070472A
:100FB00082B001900B46ADF802301123184602B002
:100FC000704782B00190009100BF02B070470000EE
:100FD00000B585B003900291019200930398069B9F
:100FE000019A029900F06AF8039B30330099184681
:100FF00001F082FC039800F05BF8094A039B1A6039
:10100000084A039B1A63084A039B5A63039B4833AD
:10101000184603F0A1F8039B184605B05DF804FBE1
:10102000E81B0100081C0100681C010000B583B02A
:101030000190019B184600F033F90346184603B0AF
:101040005DF804FBA0F13000FFF7F0BF00B583B0FE
:1010500001900091019B0099184600F02EF903467B
:10106000184603B05DF804FBA0F13000FFF7EEBFB7
:1010700000B583B00190019B4833184603F0B8F8DF
:1010800000BF03B05DF804FBA0F13000FFF7F0BF34
:1010900000B583B00190019B4833184603F0D0F8A7
:1010A00000BF03B05DF804FBA0F13000FFF7F0BF14
:1010B00082B00190019B184602B0704730B58BB0EA
:1010C0000390029101920093039800F057F9284A87
:1010D000039B1A60039B00225A60039B00229A60C4
:1010E000039B0C3301241D46002C06DB00212846FF
:1010F000FFF776FB1035013CF6E7039B009ADA62B6
:1011000000230993099B012B17D8099B1B01083366
:10111000039A13441C1D05AB00211846FFF760FB22
:1011200005AB19462046FFF7B2FB05AB1846FFF7A3
:101130006EFB099B01330993E4E7039B0433019A97
:101140000299184607F06CFB039B1A1D039BDB6A90
:101150001946104607F058FC039B0433039A0549CF
:10116000184607F0F1FE039B18460BB030BD00BFD8
:10117000781C01005B12000010B588B0039002914A
:1011800013468DF80730039B1B681B68039898472C
:1011900001F000FE0298FFF76EFB0346002B25D0FE
:1011A0009DF807301B010833039A13440433184693
:1011B000FFF761FB034683F00103DBB2002B01D094
:1011C00000F0D2FB9DF807301B010833039A13444B
:1011D000043302991846FFF75AFB039B04339DF82A
:1011E00007100122184607F07DFF2BE09DF807301D
:1011F0001B010833039A134404331846FFF73BFBE3
:101200000346002B01D000F0D5FB9DF807301B01F1
:101210000833039A13441C1D04AB00211846FFF742
:10122000DFFA04AB19462046FFF731FB04AB184642
:10123000FFF7EDFA039B04339DF8071000221846D0
:1012400007F050FF01F0C0FD039B1B6804331B68CF
:101250000398984700BF08B010BD00B585B0019055
:101260000B468DF80330019B03939DF803301B015F
:101270000833039A134404331846FFF7FCFA034675
:10128000002B09D09DF803301B010833039A134447
:1012900004331846FFF73EFE00BF05B05DF804FBBF
:1012A00000B583B00190019B0433184607F05CFF42
:1012B0000346184603B05DF804FB00B583B0019007
:1012C0000091019B04330099184607F085FF009BAD
:1012D000184603B05DF804FB82B0019000BF02B075
:1012E000704782B0019000BF02B0704710B588B05F
:1012F00001901A4A019B1A6000230793079B012B58
:1013000013DC03AB00211846FFF76AFA079BDAB239
:1013100003AB19460198FFF72FFF03AB1846FFF701
:1013200076FA079B01330793E8E7019B0C33002B08
:101330000CD0019B0C3303F12004019B0C339C4225
:1013400004D0103C2046FFF762FAF6E7019800F05F
:101350001BF8019B184608B010BD00BF781C0100A7
:1013600000B583B001900198FFF7C0FF019802F02B
:1013700031FE019B184603B05DF804FB82B001907A
:10138000019B184602B0704782B00190019B18463D
:1013900002B0704710B586B0019001F0FBFC019BD4
:1013A000184600F0DBF8019B28331846FFF763FA74
:1013B0000346002B06D0019B93F83830002B01D058
:1013C000012300E00023002B01D000F0F3FA019B81
:1013D00003F1280402AB00211846FFF701FA02AB23
:1013E00019462046FFF753FA02AB1846FFF70FFAEB
:1013F00001F0EAFC00BF06B010BD70B584B00390E8
:10140000CDE9002301F0C6FC039B184600F0A6F8C6
:10141000039ADDE90034C2E90834039E039BD3E953
:101420000845039B9B69184600F0BEFF02460B4629
:10143000A01845EB030103460C461A4623463046E6
:1014400000F078F801F0C0FC00BF04B070BD2DE9D9
:10145000104883B001900198019BD3E90212019BCF
:10146000D3E908BC1BEB01034CEB02041A462346EC
:1014700000F060F8019B28331846FFF7FCF903469B
:10148000002B04D0019B28331846FFF743FD00BF13
:1014900003B0BDE81088000010B582B0019001983B
:1014A00000F06BF80F4A019B1A60019A4FF000039D
:1014B0004FF00004C2E90234019B00221A61019B33
:1014C00000225A6100F088FF0246019B9A61019B4D
:1014D0009B690549184600F085FE019B184602B03D
:1014E00010BD00BFA41C0100ED14000000B585B0C4
:1014F0000190019B0393039B1B6808331B680398AF
:10150000984700BF05B05DF804FB000000B583B04C
:101510000190074A019B1A60019800F01FF801989A
:1015200000F031F8019B184603B05DF804FB00BFE2
:10153000A41C010000B587B00590CDE90223059BEE
:101540009869059B03F10801059B0093DDE90223DF
:1015500000F0ADFE00BF07B05DF804FB00B583B03E
:101560000190019B9A69019B08331946104600F0CF
:10157000E0FE00BF03B05DF804FB82B00190019B68
:10158000184602B0704782B00190019B184602B025
:101590007047000000B583B00190054A019B1A60B6
:1015A000019800F045F8019B184603B05DF804FB74
:1015B000D01E010000B583B001900198FFF7EAFF4B
:1015C000019802F007FD019B184603B05DF804FB8B
:1015D00000B583B00190019B1B6810331B6801228A
:1015E0000021019898470346184603B05DF804FBB4
:1015F00000B583B00190019B1B6810331B6800226B
:1016000000210198984700BF03B05DF804FB00007B
:1016100000B583B00190019800F010F8034A019BD7
:101620001A60019B184603B05DF804FBD01E010050
:1016300082B00190019B184602B0704782B00190C1
:10164000019B184602B0704782B0EFF310830193FC
:10165000019B03F00103002B0CBF01230023DBB22D
:10166000184602B07047000000B583B0FFF7ECFFEA
:1016700003468DF8073072B6084B1B78DBB2002B9F
:1016800007D1074A9DF807301370044B01221A70E6
:1016900000E000BF03B05DF804FB00BFEA0E0010DD
:1016A000E90E001008B5FFF7CFFF0346002B04D06A
:1016B00035220749074801F08DFA074B00221A70BE
:1016C000064B1B78DBB2002B00D062B600BF08BD12
:1016D000B01C0100DC1C0100EA0E0010E90E001035
:1016E00000B583B001900091019B1B68B3F1FF3FEF
:1016F00004D124220A490B4801F06CFA009B002B0C
:1017000005D0019BDB68019A52681A6004E0019BD6
:101710001B69019A52681A6000BF03B05DF804FBB0
:10172000F81C0100381D010000B585B0039002913E
:1017300013468DF807300299039806F0B5FE029B18
:10174000B3F1FF3F09D00021039806F0EBFE9DF8AE
:1017500007301946039806F0D3FE00BF05B05DF8C8
:1017600004FB00B585B003900291009313468DF8F9
:1017700007300299039806F097FE029BB3F1FF3FF2
:101780000DD000990398FFF7ABFF0121039806F0F5
:10179000C9FE9DF807301946039806F0B1FE00BF58
:1017A00005B05DF804FB00B583B001900091032201
:1017B0000099019800F004F800BF03B05DF804FB45
:1017C00000B585B00390029113468DF807309DF85F
:1017D00007301A4602990398FFF7A6FF00BF05B02D
:1017E0005DF804FB00B583B00190009100220099E0
:1017F000019800F004F800BF03B05DF804FB00B5E9
:1018000085B0039002910192019B022202990398F4
:10181000FFF7A7FF00BF05B05DF804FB00B585B07A
:1018200003900291039BB3F1FF3F21D012E0029B92
:101830001B68039A9A420AD1029B9B681946039837
:1018400006F0A4FE0221039806F0E0FE11E0029BE0
:101850000C330293029B1B68B3F1FF3FE7D1039A5D
:101860000023009300230449044801F0A7FB00E093
:1018700000BF05B05DF804FB501D01003001018080
:1018800000B585B003900291039A029B9A4201D160
:10189000039B15E0039BB3F1FF3F01D1029B0FE0D7
:1018A000029BB3F1FF3F01D1039B09E000230093AA
:1018B0000023039A0449054801F080FB4FF0FF33F1
:1018C000184605B05DF804FB641D0100300101807D
:1018D00082B0019000910AE0009B1B68019A9A4235
:1018E00002D1009B5B6809E0009B0C330093009BD6
:1018F0001B68B3F1FF3FEFD14FF0FF33184602B042
:101900007047000000B587B0039002914FF0FF339D
:101910000593039BB3F1FF3F02D14FF0FF3311E07A
:1019200002990398FFF7D4FF0590059BB3F1FF3FA1
:1019300007D1002300930023059A0449044801F0CD
:101940003DFB059B184607B05DF804FB781D0100C0
:101950003001018010B44FF000034FF0000418462E
:10196000214610BC7047000000B583B001F012FAA8
:101970000D4B1B884FF6FF7293420CD101F024FAF5
:10198000094B1B881A460023009300230749084887
:1019900001F014FB05E00121034801F02BFA01F0EE
:1019A00013FA03B05DF804FBEC0E0010B81D010043
:1019B0002301048000B583B001F0ECF90C4B1B88C7
:1019C000002B0CD101F000FA094B1B881A460023AA
:1019D000009300230749084801F0F0FA05E00121CF
:1019E000034801F02DFA01F0EFF903B05DF804FBB4
:1019F000EC0E0010E01D0100240104802DE91048C8
:101A000087B001F0C7F9FFF7A5FFCDE90401002376
:101A10008DF80F3007F02EFDFFF79CFFCDE9000198
:101A20009DF80F30002B13D0DDE90012DDE90434FE
:101A3000C91A62EB04028B469446124BD3E900129A
:101A400011EB0B0342EB0C040E4AC2E9003412E026
:101A5000DDE90012DDE90434C91A62EB04028B46A9
:101A60009446094BD3E9001211EB0B0342EB0C0433
:101A7000054AC2E9003401F0A7F900BF07B0BDE88C
:101A8000108800BFF80E0010F00E00102DE9F0498C
:101A90008BB00190019B5B6893F83830002B40F0CD
:101AA000FD80019B5B6893F83A30002B40F0F88092
:101AB000019B1B681B689847019B1B68DB69984763
:101AC0000690069B1B680993069B1B68002B06D19A
:101AD0002C227549754801F07DF8754B0993002358
:101AE0008DF823301F238DF8223011E09DF822302D
:101AF000012202FA03F3099A9A4204D19DF8223096
:101B00008DF8233008E09DF82230013B8DF822301B
:101B10009DF82230002BE9D1069B5B680793069B5A
:101B20005B68202B03D8069B5B68032B06D83A2200
:101B30005D495E4801F04EF820230793079B043B64
:101B4000072202FA03F30593059B1F464FF0000896
:101B50003B4644464FF000014FF00002620142EA6A
:101B6000D36259010B461446DB1B64EB08044FF0AB
:101B700000014FF00002620242EAD35259020B46C2
:101B80001446DB1944EB08044FF0000B4FF0000C37
:101B90004FEA841C4CEA936C4FEA831BBBEB030BAC
:101BA0006CEB040C1BEB07014CEB0802099B1F4676
:101BB0004FF000087B1848EB020413F1FF3044F1AA
:101BC000FF31099B4FF000041A4623460FF0BCFD7D
:101BD00003460C46CDE90234019B5B6800221A6083
:101BE000019B5B6800225A60019B1B685B68019A3D
:101BF0005468984703462362019B5A684FF00003DC
:101C00004FF00004C2E90A34019B5B68099A9A60AC
:101C1000019B5B689DF8232083F83B204FF0010374
:101C20004FF00004079AA2F12000C2F1200104FA4B
:101C300002F603FA00F0064323FA01F10E4303FA19
:101C400002F52A46019B5B68013ADA60019B5B68FA
:101C5000059A1A61019B5A68DDE90234C2E906342B
:101C6000019B5A684FF000034FF00004C2E90C34A6
:101C7000019B5B68002283F83920019B5B6800228E
:101C800083F83A20019B5B68012283F83820019891
:101C900000F01AF8019800F031FA02E000BF00E00D
:101CA00000BF0BB0BDE8F089001E0100241E01003A
:101CB00040420F0082B001900091019B5B68009A46
:101CC0001A6000BF02B070472DE9F0478CB0019058
:101CD000019B5B680993099B93F83A30002B40F015
:101CE0004381019B1B685B6898470890019B5B6878
:101CF0001B6A089A9A4200F03981099B1B6A089A6C
:101D0000D21A099BDB6813404FF00004CDE906347A
:101D1000099B089A1A62099B9B68964A934204D1D0
:101D2000DDE90634CDE90A3412E1099B93F83B3032
:101D3000002B00F08F80DDE9069A4B4654464FF0A9
:101D400000014FF00002620142EAD36259010B46E2
:101D50001446B3EB090364EB0A044FF000014FF0A3
:101D60000002620242EAD35259020B46144613EBB8
:101D7000090344EB0A044FF000014FF00002A201F6
:101D800042EA93629901C91A62EB040211EB09035A
:101D900042EB0A04CDE90234099B93F83B301A4622
:101DA000DDE90234C2F12000A2F1200123FA02F79A
:101DB00004FA00F0074324FA01F10F4324FA02F871
:101DC000CDE90A78099BD3E90A78099B93F83B305F
:101DD0001A46DDE90A34A2F12000C2F1200104FA1A
:101DE00002F603FA00F0064323FA01F10E4303FA68
:101DF00002F5DDE902345B1B64EB0604194622465A
:101E0000CB1942EB0804099AC2E90A34099BD3E9C9
:101E10000A12099B9B684FF00004A24208BF994236
:101E2000C0F09680DDE90A34591C44F10002CDE986
:101E30000A12099BD3E90A12099B9B681D464FF0C1
:101E400000060B4614465B1B64EB0604099AC2E9C4
:101E50000A347DE0DDE906562B4634464FF000019A
:101E60004FF00002620142EAD36259010B46144668
:101E70005B1B64EB06044FF000014FF000026202AE
:101E800042EAD35259020B4614465B1944EB06044E
:101E90004FF000014FF00002A20142EA9362990163
:101EA000C91A62EB04024B1942EB0604CDE9043473
:101EB000099B9B684FF000041A462346DDE90401A4
:101EC0000FF042FC03460C46CDE90A34099BD3E9E6
:101ED0000A12099B9B684FF000040A9804FB00F566
:101EE0000B9803FB00F028440A9DA5FB0334204413
:101EF0000446DDE90456ED1A66EB04062F46B046AB
:101F00007B1848EB0204099AC2E90A34099BD3E919
:101F10000A12099B9B684FF00004A24208BF994235
:101F200016D3DDE90A34591C44F10002CDE90A1246
:101F3000099BD3E90A12099B9B681D464FF00006D6
:101F40000B4614465B1B64EB0604099AC2E90A348B
:101F5000099BD3E90C12DDE90A345D1844EB020653
:101F6000099AC2E90C5602E000BF00E000BF0CB0C5
:101F7000BDE8F08740420F00F0B589B00390CDE98D
:101F80000023039B5B680693069BD3E90C67DDE99E
:101F9000000102460B46921B63EB0703CDE90423C5
:101FA000039B5B681B690793039B5B68D3E906018E
:101FB000DDE90423994208BF90426ED3069B9B68DB
:101FC0003B4A93420CD1049B0793039B5B681B69BC
:101FD000079A9A4261D9039B5B681B6907935CE08F
:101FE000069B93F83B30002B2DD0039B5B6893F846
:101FF0003B301946DDE90423A1F12006C1F12000A0
:1020000003FA01F502FA06F6354322FA00F0054319
:1020100002FA01F4274A4FF00003A01845EB030130
:10202000234A4FF000030FF08FFB03460C46079343
:10203000039B5B681B69079A9A422ED9039B5B68D6
:102040001B69079329E0069B9B684FF00004049AE4
:1020500004FB02F1059A03FB02F20A440499A1FB76
:1020600003342244144613494FF000025D1844EB38
:102070000206284631460E4A4FF000030FF064FB7B
:1020800003460C460793039B5B681B69079A9A42B9
:1020900003D9039B5B681B690793069B1A6A079B1E
:1020A0001A44069BDB681340184609B0F0BD00BF18
:1020B00040420F003F420F0084B003900291019212
:1020C000019A039B9A420BD9029A019B9A4203D22E
:1020D000029A039B9A4201D201230CE000230AE0FA
:1020E000029A039B9A4205D2029A019B9A4201D31B
:1020F000012300E00023184604B0704710B58AB0F1
:102100000190019B5B680993099B93F83A30002B7F
:1021100061D1019B5B6893F83930002B5BD101984A
:10212000FFF7D2FD019B5B685B68002B44D0019BED
:102130005B6803F13004D4E90034CDE90634019B37
:102140005B685B6818CBCDE90434DDE90434DDE974
:102150000612A24208BF994204D3019B1B685B6927
:10216000984739E0DDE904230198FFF705FF039064
:10217000099B1B6A039A9A4205D140F2071217493C
:10218000174800F027FD019B1B681B6903989847BF
:10219000019B1B685B6898470290099B1B6A039A26
:1021A00002991846FFF788FF0346002B14D0019BC5
:1021B0001B685B6998470FE0099B1A6A099B1B69BA
:1021C0001A44099BDB6813400893019B1B681B6939
:1021D0000898984700E000BF0AB010BD001E01003B
:1021E000281E010000B583B0019000910198FFF70F
:1021F0004DFC00F0CFFD00990198FFF75BFD00F06A
:10220000E3FD00BF03B05DF804FB10B584B001909E
:1022100000F0C0FD019B1B68DB689847019B5B6871
:1022200093F83A30002B02D000F0CEFD3DE0019B48
:102230005B68012283F83920019B5B685B68002B97
:1022400026D00198FFF740FD019B5B685B6818CBC7
:10225000019A5268D2E90C12A24208BF994219D3DE
:10226000019B5B685B680393019B5B685A68019BF9
:102270005B68D2685A60019B5B681B68002BDBD0EF
:10228000019B5B681B68039A926810469847D3E7E6
:1022900000BF00E000BF019B5B68002283F839208B
:1022A0000198FFF72BFF00F08FFD04B010BD10B5B3
:1022B00086B003900291CDE9002300F06BFD0398F6
:1022C000FFF702FD029ADDE90034C2E90034029B07
:1022D000089A9A6000230593039B5B685B680493EC
:1022E0000CE0049B18CBDDE90012A24208BF994222
:1022F00008D3049B0593049BDB680493049B002B89
:10230000EFD100E000BF029B049ADA60059B002B2E
:1023100007D1039B5B68029A5A600398FFF7EEFEB1
:1023200002E0059B029ADA6000F04EFD00BF06B0A5
:1023300010BD00B585B00190009100F02BFD019B10
:102340005B685B68009A9A4208D1019B5B68009ABF
:10235000D2685A600198FFF7D1FE14E0019B5B68D8
:102360005B6803930CE0039BDB68009A9A4204D1FC
:10237000009BDA68039BDA6005E0039BDB6803934C
:10238000039B002BEFD100F01FFD00BF05B05DF8EF
:1023900004FB10B582B00190019800F005F80346E7
:1023A0000C46184602B010BD10B582B001900198DD
:1023B000FFF76CFB00F0EEFC0198FFF785FC00F0E6
:1023C00003FD019B5B6803F13004D4E90034184637
:1023D000214602B010BD0000014B1846704700BFF7
:1023E0006C1E010008B5054B1B68002B03D0034B86
:1023F0001B680348984700BF08BD00BFCC00001011
:102400006C1E010000B585B00390029113468DF853
:102410000730039800F00BF9164A039B1A60039BE0
:1024200000225A60039B029A9A60039B9DF8072042
:102430001A731148FEF72EFD0346184601F0D8FE28
:10244000029B002B07D00D4B1A68039B5A600B4A66
:10245000039B136002E0039B00225A600648FEF7CC
:1024600019FD0346184601F0EBFE039B184605B024
:102470005DF804FBC01E0100440F0010400F001067
:1024800000B585B00190274A019B1A602648FEF7E7
:1024900001FD0346184601F0ABFE019B9B68002B33
:1024A00019D0224B1B68019A9A4204D1019B5B68A8
:1024B0001E4A13600FE01D4B1B680393039B5B6870
:1024C000019A9A4203D0039B5B680393F6E7019B52
:1024D0005A68039B5A60164B1B68019A9A4202D1B4
:1024E000134B00221A601048FEF7D4FC034618462E
:1024F00001F0A6FE019800F093F80346002B0CBFF4
:1025000001230023DBB2002B04D0019B043B1846BF
:1025100000F076FE019800F090F8019B184605B097
:102520005DF804FBC01E0100440F0010400F0010B6
:102530006C0F001000B583B001900198FFF7A0FF69
:10254000019801F047FD019B184603B05DF804FBBC
:1025500000B585B0019000912D48FEF79BFC034625
:10256000184601F045FE2B4B1B680393039B002B81
:1025700028D0039B9B68002B14D0039B9B681846B4
:1025800009F084F90246009B93420BD1039B9B68A0
:10259000009A0199184608F0AFFB0346002B01D1C1
:1025A000012300E00023002B08D01948FEF772FC3D
:1025B0000346184601F044FE039B25E0039B5B683D
:1025C0000393D3E7009B072B09D1009A0199124886
:1025D00008F092FB0346002B01D1012300E0002309
:1025E000002B09D00A48FEF755FC0346184601F0B7
:1025F00027FE0A4B1B6807E00548FEF74BFC034625
:10260000184601F01DFE0023184605B05DF804FBD6
:10261000440F0010400F0010741E01006C0F0010DA
:1026200082B00190019B1B7B184602B0704782B0BC
:102630000190019B184602B0704782B00190019B47
:10264000184602B0704782B001900023184602B0CD
:10265000704782B001900023184602B0704700B561
:1026600085B00190019B1B6810331B68012200217B
:10267000019898470390039B002B01DA039B11E01C
:10268000019B1B6810331B680222002101989847A8
:102690000290019B1B6810331B680022039901986C
:1026A0009847029B184605B05DF804FB00B587B05B
:1026B00001900091019B00221A60019B00225A6048
:1026C0002049009809F042F90246009B1344009308
:1026D000009B0493019B049A1A6000230593019BBD
:1026E0001B681B788DF80F309DF80F302F2B05D10C
:1026F000019B1B685A1C019B1A600DE09DF80F306E
:10270000002B08D0059B01330593019B1B685A1CC5
:10271000019B1A60E3E700BF059B002B04D129222F
:1027200009490A4800F056FA059B19460498FFF734
:102730000FFF0246019B5A60019B184607B05DF8E7
:1027400004FB00BF181F01001C1F0100401F0100F7
:1027500082B00190019B1B68184602B0704700B51B
:1027600083B00190019B5B68002B01D100230AE03C
:10277000019B5B681846FFF753FF0346012B0CBF14
:1027800001230023DBB2184603B05DF804FB00B55B
:1027900083B001900198FFF7E2FF0346002B09D0B8
:1027A000019B5B68002B03D0019B5B68043B02E04C
:1027B000002300E00023184603B05DF804FB00B5D9
:1027C00083B00190019B5B68002B01D100230AE0DC
:1027D000019B5B681846FFF723FF0346002B0CBFE5
:1027E00001230023DBB2184603B05DF804FB00B5FB
:1027F00083B001900198FFF7E2FF0346002B09D058
:10280000019B5B68002B03D0019B5B68043B02E0EB
:10281000002300E00023184603B05DF804FB82B0FB
:102820000190019B5B68002B14BF01230023DBB2E6
:10283000184602B07047000000B583B001900091C7
:10284000019B1846FEF7E4FE019B04330022009929
:102850001846FFF7D7FD019800F044F9054A019B9F
:102860001A60054A019B5A60019B184603B05DF847
:1028700004FB00BFDC1F01002C20010000B583B069
:1028800001900B4A019B1A600A4A019B5A60019809
:1028900000F02EF9019B04331846FFF7F1FD019B70
:1028A0001846FEF777FE019B184603B05DF804FB5F
:1028B000DC1F01002C200100A0F10400DEE700BFB6
:1028C00000B583B001900198FFF7D8FF019801F09F
:1028D00081FB019B184603B05DF804FBA0F10400E6
:1028E000EEE782B0019000BF02B0704782B0019065
:1028F00000BF02B07047000000B585B003900291A0
:10290000039B02991846FFF797FF039800F0F6F82B
:10291000144A039B1A60144A039B5A60039B0022CB
:102920005A61039B1149184600F0B1FE0246039B11
:102930005A61039B5B69002B05D0039B5B691846BA
:1029400001F0CAFA09E0039B5B691A460023009371
:1029500000230749074800F031FB039B184605B0E8
:102960005DF804FB6C1F0100CC1F01004C1F01002F
:10297000501F01001901018000B583B001900B4A7E
:10298000019B1A600A4A019B5A60019B5B691846C9
:1029900006F020FF019800F0B7F8019B1846FFF7FA
:1029A0006DFF019B184603B05DF804FB6C1F01002E
:1029B000CC1F010082B001900023184602B070477E
:1029C00000B587B0039002910192029B0593059A8E
:1029D000019B13440493039B1B6850331B680398AB
:1029E0009847059A049B9A4215D0039B1B6848336D
:1029F0001A68059B591C05911B7819460398904746
:102A00000346B3F1FF3F0CBF01230023DBB2002BD1
:102A100000D1E6E700BF039B1B6854331B68039893
:102A20009847059A029BD31A184607B05DF804FB35
:102A300000B589B0039002910192029B0793079A17
:102A4000019B13440693039B1B6850331B68039838
:102A50009847079A069B9A4212D0039B1B684C33F7
:102A60001B68039898470590059BB3F1FF3F06D07C
:102A7000079B5A1C0792059AD2B21A70E9E700BF69
:102A8000039B1B6854331B6803989847079A029B63
:102A9000D31A184609B05DF804FB84B00390029184
:102AA00001920023184604B0704782B001900023C1
:102AB000184602B0704782B0019000BF02B0704764
:102AC00082B001900023184602B0704782B0019096
:102AD0000023184602B0704782B0019000231846C8
:102AE00002B0704782B00190019B184602B0704757
:102AF00082B00190019B184602B0704782B00190ED
:102B0000019B184602B0704782B00190019B1846A5
:102B100002B0704700B583B07346019000911A4629
:102B20000099019800F005F80346184603B05DF8D7
:102B300004FB00B587B00390029101920023059336
:102B40000299039807F0EAFD0590059B184607B027
:102B50005DF804FB00B587B0039002910192002359
:102B60000593019A0299039808F044FA0590059B91
:102B7000184607B05DF804FB00B583B073460190BA
:102B800000911A460099019800F004F800BF03B0C4
:102B90005DF804FB00B585B00390029101920299A3
:102BA000039807F095F800BF05B05DF804FB00B589
:102BB00087B003900291019200230593019A029934
:102BC000039806F063FD0590059B184607B05DF875
:102BD00004FB000000B585B003900291019200F063
:102BE000D9F8019B029A0399044800F06DF800F0AF
:102BF0002BF800BF05B05DF804FB00BF34200100D6
:102C000000B583B001900091019B1B68B3F1FF3FB9
:102C100004D124220A490B48FFF7DCFF009B002B5C
:102C200005D0019BDB68019A52681A6004E0019BA1
:102C30001B69019A52681A6000BF03B05DF804FB7B
:102C400068200100A820010000B589B000F0A2F8BA
:102C50006B461C491846FEF7C5FD0023079312E09A
:102C60006B4601211846FFF7CBFF962001F02AFAA8
:102C70006B4600211846FFF7C3FF962001F022FAA9
:102C8000079B01330793079B032BE9DD0023069382
:102C900014E06B4601211846FFF7B2FF4FF4C870ED
:102CA00001F010FA6B4600211846FFF7A9FF4FF418
:102CB000C87001F007FA069B01330693069B032BAD
:102CC000E7DDCAE732C009200FB400B583B005AB19
:102CD00001930199049800F007F800BF03B05DF874
:102CE00004EB04B07047000000B5A5B0019000915E
:102CF00000F050F802A8009B019A80210CF062F9C4
:102D00002290229B002B1ADD104B1B68002B04D154
:102D10000F4A1049104805F083FD002323930AE071
:102D200002AA239B13441B7819460B4806F054FA59
:102D3000239B01332393239A229B9A42F0DB00F0DA
:102D400043F800BF25B05DF804FB00BF701700100A
:102D500003C0092002C009207829001082B0EFF3D7
:102D600010830193019B03F00103002B0CBF01238F
:102D70000023DBB2184602B0704782B0EFF3058340
:102D80000193019B002B14BF01230023DBB21846E3
:102D900002B0704708B5094B1B68B3F1FF3F04D17F
:102DA000512207490748FFF715FFFEF75DFC034B6B
:102DB0001B680133014A136000BF08BD700F00108B
:102DC000C0200100E420010008B5094B1B68002B5E
:102DD0000BD0074B1B68013B054A1360044B1B6873
:102DE000002B03D1FEF75EFC00E000BF08BD00BF72
:102DF000700F001088B001900B46ADF80230019BB7
:102E00000493049BD3E85F3F0393039B9AB2BDF8FE
:102E100002301344ADF81E30BDF81E30ADF81C3042
:102E2000019B0693BDF81C200699C1E8532F05931A
:102E3000059B002BE3D1BDF81E30184608B0704743
:102E400088B001900B46ADF80230019B0493049BBF
:102E5000D3E85F3F0393039B9AB2BDF80230D31AC5
:102E6000ADF81E30BDF81E30ADF81C30019B069346
:102E7000BDF81C200699C1E8532F0593059B002B34
:102E8000E3D1BDF81E30184608B0704708B5FFF70B
:102E900074FF0346002B07D1FFF760FF034683F062
:102EA0000103DBB2002B01D030BFFDE7012001F0B0
:102EB00003F8000000B599B00390029101920093CD
:102EC000039B002B01DB364B039300BF354B1B7874
:102ED000012BFBD0FFF75EFF324B01221A70FFF788
:102EE00073FF314B1B6801332F4A136005AB34224B
:102EF0000021184608F00AF8039B05931A9B0693D5
:102F0000029B0793294B5B691793179B0893179BA9
:102F1000DB6B0993179B5B6B0A93179B1B6B0B93E4
:102F2000EFF305831693169B002B05D0EFF3088370
:102F30001593159B0C9312E0EFF314831493149BD9
:102F400003F00203002B05D1EFF308831393139BC7
:102F50000C9304E0EFF309831293129B0C93124B32
:102F60001B68012B05D105AB34221946104807F028
:102F7000F5FE05AB342219460E4807F0EFFE0E4B66
:102F80001B68002B03D00C4B1B680A489847054B65
:102F900000221A700023184619B05DF804FB00BF28
:102FA0000101FF80740F0010780F0010D80100108D
:102FB0007C0F0010B00F0010E40F001010B586B0A9
:102FC0007446059004910392029323460093089B54
:102FD000029A03990598FFF76DFF0346002B01D075
:102FE000054B06E00499054800F00AF8FFF74EFF8C
:102FF000014B184606B010BD0F01FF80B00F001046
:1030000010B586B003900291039B1B685B1703F019
:103010000303032B03D1039B1B685B4202E0039B6A
:103020001B689BB20593039B1B681B14DBB20493C4
:10303000039B1968049B059A4048FFF745FE059BD2
:10304000A3F23113072B4BD801A252F823F000BF93
:10305000713000007F3000008D3000009B30000098
:10306000A9300000C5300000B7300000D3300000A8
:10307000039B9B6819463248FFF726FE31E0039B0D
:103080009B6819462F48FFF71FFE2AE0039B9B68A9
:1030900019462D48FFF718FE23E0039B9B6819464D
:1030A0002A48FFF711FE1CE0039B9B68194628483D
:1030B000FFF70AFE15E0039B9B6819462548FFF7BA
:1030C00003FE0EE0039B9B6819462348FFF7FCFDB7
:1030D00007E0039B9B6819462048FFF7F5FD00E0D9
:1030E00000BF0298FFF7F0FD039B5B6819461C4880
:1030F000FFF7EAFD039B9B6819461A48FFF7E4FDBA
:10310000039BD968039B1869039B5C69039B9B69BC
:10311000039AD26901920093234602461248FFF7B0
:10312000D3FD039B1B6819461048FFF7CDFD1048DF
:10313000FFF7CAFD00BF06B010BD00BF302101007F
:10314000842101009C210100AC210100BC2101006F
:10315000D0210100E4210100F82101000822010032
:1031600020220100302201004422010094220100AB
:10317000E022010008B500F073FF0346184608BDC1
:1031800000B583B0FFF7F6FF0346002B0FD000F029
:1031900075FF0190019B002B01D0019B09E000BF4E
:1031A000FFF7E8FF0346002BFAD1002301E04FF0C0
:1031B000FF33184603B05DF804FB000008B5074B69
:1031C0001B68002B07D0054B1B684FF0FF311846DA
:1031D00003F09AF900E000BF08BD00BF30190010ED
:1031E00008B5064B1B68002B05D0044B1B6818461E
:1031F00003F0B4F900E000BF08BD00BF30190010B3
:1032000000B585B001901348FDF744FE034618460B
:1032100000F0EEFF00230393039B3F2B0FD80E4AD1
:10322000039B52F82330019A9A4204D10A4A039B25
:10323000002142F82310039B01330393ECE7054878
:10324000FDF728FE0346184600F0FAFF00BF05B060
:103250005DF804FB70100010D000001084B00390E3
:10326000029101926FF01C03184604B0704782B0BF
:1032700001906FF01503184602B0704782B00190BC
:103280000123184602B0704782B00190002318460F
:1032900002B0704700B585B003900291019200938F
:1032A000039B1846FEF7B4F90B4A039B1A600B4BBD
:1032B0001B68002B09D1019A0299094805F0B0FA60
:1032C0000099074805F0A0FB00E000BF039B1846EB
:1032D00005B05DF804FB00BFB024010070170010BA
:1032E0007829001000B587B0039002910192029BEB
:1032F000049300230593059A019B9A420BD2049AEA
:10330000059B13441B781946054805F065FF059B8E
:1033100001330593EFE7019B184607B05DF804FB06
:103320007829001000B587B0039002910192029BAA
:103330000593019B002B01D1002307E0054805F010
:1033400013FF0346DAB2059B1A700123184607B033
:103350005DF804FB7829001000B585B001900B469C
:10336000ADF802300023ADF80E30BDF8023003F0A6
:103370000103002B07D0174805F05AFF0346002B26
:1033800001D0012300E00023002B05D0BDF80E3052
:1033900043F00103ADF80E30BDF8023003F0100326
:1033A000002B07D00B4805F04FFF0346002B01D040
:1033B000012300E00023002B05D0BDF80E3043F0C0
:1033C0001003ADF80E30BDF90E30184605B05DF8AB
:1033D00004FB00BF7829001082B00190002318463A
:1033E00002B0704782B001900023184602B07047C7
:1033F00008B5154B1B78BFF35B8FDBB203F00103FD
:10340000002B0CBF01230023DBB2002B19D00E4888
:1034100000F082FD0346002B14BF01230023DBB222
:10342000002B0ED04FF41653084A09490948FFF7FC
:1034300031FF054800F0A6FD074A0849054800F09D
:1034400033FD044B184608BD9C10001003C0092032
:1034500002C0092098100010C8000010E93F0000C9
:1034600000B585B001900198FFF7BCFF0390039B66
:10347000002B01D0039B0BE00198FFF7ADFF0390F9
:10348000039B002B01D0039B02E0FFF7B1FF034633
:10349000184605B05DF804FB00B585B00190019BAE
:1034A0003F2B01DD002315E00C4A019B52F823302D
:1034B0000393039BB3F1FF3F0BD1019B022B08DC6D
:1034C0000198FFF7CDFF03900449019B039A41F84F
:1034D0002320039B184605B05DF804FBD0000010C4
:1034E00000B583B00190009106F006F90246019BF9
:1034F0005B421360054A009B002142F823104FF005
:10350000FF33184603B05DF804FB00BFD000001085
:1035100084B00190019B0393039B23F40043039326
:10352000039B184604B0704700B583B01D48FDF7F3
:10353000B1FC0346184600F05BFE03230193019B98
:103540003F2B0ADC184A019B52F82330002B03D092
:10355000019B01330193F2E700BF019B3F2B0EDD7E
:1035600006F0CAF80246182313600E48FDF792FCD5
:103570000346184600F064FE4FF0FF330DE00A4AA0
:10358000019B4FF0FF3142F823100648FDF782FC03
:103590000346184600F054FE019B184603B05DF840
:1035A00004FB00BF70100010D000001000B585B003
:1035B0000190FFF7B9FF0390039B002B01DA039BF7
:1035C0000FE00A49039B019A41F82320084A039B14
:1035D000134400221A70074A039B134400221A70F6
:1035E000039B184605B05DF804FB00BFD000001037
:1035F000F00F00103010001000B583B00190009162
:103600000C4A019B52F82330009A9A4206D1094A8B
:10361000019B002142F82310002306E006F06CF81D
:103620000246092313604FF0FF33184603B05DF8DC
:1036300004FB00BFD000001000B587B001900091DE
:1036400040238DF80C3003AB013301A90422184646
:1036500007F084FB03AB0099184606F0E1FA0590E9
:10366000059B002B08D0019B184600F012FB034677
:10367000002B01D0012300E00023002B02D005988D
:1036800000F02AFC059B184607B05DF804FB00B566
:1036900085B0019000910198FFF788FF0390039B8C
:1036A000002B01D100230CE000990398FFF7C4FF21
:1036B0000290029B002B03D101990398FFF79CFF16
:1036C000029B184605B05DF804FB000000B585B00C
:1036D000019000912649019807F0FAFF0346002B5C
:1036E0000CBF01230023DBB2002B04D00020FFF726
:1036F000D3FE002337E01F49019807F0E9FF034696
:10370000002B0CBF01230023DBB2002B04D00120CF
:10371000FFF7C2FE012326E01749019807F0D8FF02
:103720000346002B0CBF01230023DBB2002B04D087
:103730000220FFF7B1FE022315E0019B1B78402B0E
:1037400008D1019B591C03AB0422184607F006FB65
:10375000039B08E00098FFF7DBFE0346194601983B
:1037600000F00CF80346184605B05DF804FB00BFF6
:10377000FC220100042301000C2301000EB410B54B
:1037800089B00190FFF7D0FE0790079B002B01DA6C
:10379000079B5EE00023049302AB01991846FEF7F5
:1037A00085FF02AB1846FFF73AF8034683F00103A2
:1037B000DBB2002B07D0079B19466FF01200FFF712
:1037C0008FFE034645E002AB1846FEF7F8FF0346BE
:1037D000002B06D002AB1846FFF709F80346049306
:1037E00027E002AB1846FEF7D2FF0690069B002B9F
:1037F00007D1079B19466FF01200FFF771FE0346D1
:1038000027E0069B1B6808331C6802AB1846FEF7CE
:103810009FFF024604A90B9B0698A0470590059BB5
:10382000002B06D0079B19460598FFF759FE034663
:103830000FE0049A0A49079B41F82320094A079B95
:10384000134400221A70084A079B134400221A707E
:10385000079B184609B0BDE8104003B0704700BF91
:10386000D0000010F00F00103010001000B583B031
:103870000190019800F006F80346184603B05DF881
:1038800004FB000000B585B001900198FFF704FE2D
:103890000390144A019B002142F82310039B002B44
:1038A00007D105F029FF0246092313604FF0FF33CB
:1038B00013E0039B1B6814331B680398984702901E
:1038C000029B002B08DA05F017FF0246029B5B42C1
:1038D00013604FF0FF3300E00023184605B05DF899
:1038E00004FB00BFD000001082B0019000231846F6
:1038F00002B0704700B58DB0059004910392029319
:10390000FFF73BFA0346002B07D1FFF727FA0346E0
:1039100083F00103DBB2002B01D0012300E0002380
:10392000002B07D0059A00230093002350495148EB
:10393000FFF744FB039B002B07DA05F0DDFE024690
:10394000162313604FF0FF338DE0039B0893002391
:103950000B930598FFF7C8FF0346002B56D0464A45
:10396000059B13441B788DF82B3000230993099A8B
:10397000089B9A424ADA099B049A13441B780A2B43
:103980003AD19DF82B300D2B36D0099A0B9B9A42D9
:103990001EDD0B9B049AD118099A0B9BD31A1A4669
:1039A000059800F06DF80790079B002B02DA4FF0A6
:1039B000FF3358E00B9A079B13440B930B9A099B18
:1039C0009A424ADB2C4A059B13449DF82B201A701F
:1039D00001222A49059800F053F80790079B002B15
:1039E00002DA4FF0FF333EE0079B002B37DD224A1F
:1039F000059B13440D221A70099B049A13441B78EB
:103A00008DF82B30099B01330993B0E70B9A089B83
:103A10009A4226DA0B9B049AD118089A0B9BD31A68
:103A20001A46059800F02CF80690069B002B02DA47
:103A30004FF0FF3317E00B9A069B13440B930B9B3D
:103A4000002B0FDD0B9B013B049A134419780A4AA3
:103A5000059B13440A461A7004E000BF02E000BF51
:103A600000E000BF0B9B18460DB05DF804FB00BFE3
:103A7000142301002F010180301000105023010099
:103A800000B587B00390029101920398FFF704FDFF
:103A90000590059B002B07D105F02EFE0246092359
:103AA00013604FF0FF3315E0059B1B680C331B6858
:103AB000019A0299059898470490049B002B08DA14
:103AC00005F01AFE0246049B5B4213604FF0FF3381
:103AD00000E0049B184607B05DF804FB00B58BB00E
:103AE0000590049103920293FFF747F90346002BD8
:103AF00007D1FFF733F9034683F00103DBB2002B54
:103B000001D0012300E00023002B07D0059A0023F9
:103B1000009300233F494048FFF750FA039B002BD6
:103B200007DA05F0E9FD0246162313604FF0FF3374
:103B30006BE0002309930598FFF7D6FE0346002BA0
:103B40005CD00DF11F0301221946059800F068F8BA
:103B50000890089B002B02DA4FF0FF3355E0089BDA
:103B6000002B01D1099B50E09DF81F300D2B05D192
:103B70002A4A059B13441B780A2B09D19DF81F3054
:103B80000A2B10D1254A059B13441B780D2B0AD014
:103B90009DF81F10214A059B13440A461A70049B86
:103BA0000A221A7027E09DF81F300D2B05D11B4A01
:103BB000059B13441B780A2B09D09DF81F300A2B54
:103BC0000DD1164A059B13441B780D2B07D19DF888
:103BD0001F10124A059B13440A461A70B1E79DF85C
:103BE0001F100E4A059B13440A461A709DF81F20A9
:103BF000049B1A7000BF0123099305E0039A0499FE
:103C0000059800F00DF80990099B18460BB05DF877
:103C100004FB00BF542301002F010180F00F0010AE
:103C200000B587B00390029101920398FFF734FC2E
:103C30000590059B002B07D105F05EFD0246092388
:103C400013604FF0FF3315E0059B1B6808331B68BA
:103C5000019A0299059898470490049B002B08DA72
:103C600005F04AFD0246049B5B4213604FF0FF33B0
:103C700000E0049B184607B05DF804FB00B583B074
:103C80000190019800F005F80346184603B05DF86E
:103C900004FB00B585B001900198FFF7FDFB039090
:103CA000039B002B06D105F027FD02460923136074
:103CB000002312E0039B1B681C331B680398984782
:103CC0000290029B002B07DA05F016FD0246029BCC
:103CD0005B421360002300E0029B184605B05DF8CC
:103CE00004FB00B587B0039002910192019A0299FA
:103CF000039800F006F80590059B184607B05DF89C
:103D000004FB00B587B00390029101920398FFF77E
:103D1000C3FB0590059B002B07D105F0EDFC024687
:103D2000092313604FF0FF3315E0059B1B68103328
:103D30001B68019A0299059898470490049B002BF0
:103D400008DA05F0D9FC0246049B5B4213604FF091
:103D5000FF3300E0049B184607B05DF804FB00B594
:103D600083B0019000910099019800F005F8034696
:103D7000184603B05DF804FB00B585B001900091D2
:103D80000198FFF789FB0390039B002B07D105F0F7
:103D9000B3FC0246092313604FF0FF3319E0039B85
:103DA0001B681C331B68039898470346002B02D0FE
:103DB0004FF4005201E04FF40042009B5A60039B15
:103DC0001B6828331B68039898470246009B1A61BA
:103DD0000023184605B05DF804FB08B5012000F08B
:103DE0006BF8000086B00190194B1B680593184BC7
:103DF0001A68019B13440493EFF308830393039B16
:103E00001A46049B93422CBF01230023DBB2002BF4
:103E100005D0104B0C221A604FF0FF3315E00E4B0B
:103E20001B68002B0DD00D4B1A680B4B1B681344FD
:103E3000049A9A4205D3074B0C221A604FF0FF33C5
:103E400003E0034A049B1360059B184606B07047C5
:103E5000D0010010A4290010EC0F0010E80F001092
:103E600000B583B001900F4B1B689B68184605F0A6
:103E700091FD0C4B1B68DB68184605F08BFDFFF7C6
:103E800079F90346002B14BF01230023DBB2002B7A
:103E900001D000F0D8F8019B002B01D0FEF7D4FE32
:103EA000FEE700BF8002001084B0039002910192EF
:103EB0000123184604B0704700B583B00190019803
:103EC000FFF7CEFF00BF03B05DF804FB82B00190A6
:103ED0000123184602B0704700B583B0019000215D
:103EE000019807F0E9FA00BF03B05DF804FB00B5E4
:103EF00083B00190019800F0C3FB00BF03B05DF8F0
:103F000004FB00B583B00190019800F0C9FB00BF2D
:103F100003B05DF804FB000000B585B00190019B83
:103F20000393039B1B7803F00303012B01D10023B0
:103F30001FE0FFF743F9039B1B7803F00303012BFA
:103F400003D1FFF74DF9002313E0039B1B7803F027
:103F50000303002B05D040F2A95208490848FEF798
:103F600039FE039B1B7843F00203DAB2039B1A70FD
:103F70000123184605B05DF804FB00BF9C23010037
:103F8000C423010000B585B00190019B0393039BFE
:103F90001B7803F00303022B05D040F2B1520B490A
:103FA0000B48FEF717FE039B1B785BB223F003035D
:103FB0005BB243F001035BB2DAB2039B1A70FFF706
:103FC0000FF900BF05B05DF804FB00BF9C230100A2
:103FD000EC23010000B583B00190019806F096FB38
:103FE00000BF03B05DF804FB00B583B00190064A42
:103FF000019B1A60019B1846FDF7CCFA019B1846FD
:1040000003B05DF804FB00BFB024010000B583B02D
:1040100001900198FFF7E8FF0198FFF7DBFF019B94
:10402000184603B05DF804FB30B585B001900091EF
:10403000019C009D20462946ABBE04460394039B89
:10404000184605B030BD00B585B06B46194618203E
:10405000FFF7EAFF0346184605B05DF804FB0000D1
:10406000054B1B6803F00103002B14BF0123002341
:10407000DBB21846704700BFF0ED00E000B583B03A
:1040800001AB194640F20510FFF7CEFF0346184674
:1040900003B05DF804FB000000B583B0019008494F
:1040A00001980DF0DBF9034618460DF027FB034697
:1040B000184600F017F800BF03B05DF804FB00BF1E
:1040C0000024744900B583B00190019B4FF47A72CB
:1040D00002FB03F3184600F005F800BF03B05DF8DB
:1040E00004FB000000B585B00190FEF775F9039060
:1040F0000398FEF74EF90290019BB3F57A7F06DB39
:10410000FEF72CFE0346002B01D0012300E0002324
:10411000002B0BD0FDF728FC019B0E4AA2FB0323CA
:104120009B09184603F03AFCFDF744FC0398FEF7A0
:1041300030F90246029BD21A019B9A4234BF0123F6
:104140000023DBB2002B00D0F0E700BF05B05DF824
:1041500004FB00BFD34D621000B583B001900198FD
:1041600000F0A0F8019B00221A620021019800F0E3
:1041700005F8019B184603B05DF804FB00B587B055
:1041800001900091019B04331C220021184606F087
:10419000BDFE02AB00221A605A609A60DA60009B92
:1041A000002B01D0009B00E00E4B0293019B0433D7
:1041B00004931C2305930B23039302AB184602F0D0
:1041C0007DF90246019B1A60019B1B68002B04D1FC
:1041D000332205490548FEF7FDFC00BF07B05DF836
:1041E00004FB00BFF8240100142501003025010064
:1041F00000B587B00390039B1B684FF0FF31184652
:1042000002F082F90590059B002B04D1039B1B6AE9
:104210005A1C039B1A62059B002B07D0059A0023AA
:104220000093002304490548FEF7C8FE0023184602
:1042300007B05DF804FB00BF3425010015010280C2
:1042400000B587B00390039B1B6A5A1E039B1A623A
:10425000039B1B68184602F081F90590059B002B13
:1042600007D0059A00230093002304490448FEF771
:10427000A5FE0023184607B05DF804FB48250100A1
:104280001701028000B583B00190019B1B6818469E
:1042900002F08AF9019800F00BF8019B184603B070
:1042A0005DF804FB82B00190019B184602B0704794
:1042B00082B00190019B184602B070474FF0100386
:1042C00000F00CB84FF0200300F008B84FF03003B6
:1042D00000F004B84FF0400300F000B8EFF308809E
:1042E0004FF0040172460A4201D0EFF309809C4668
:1042F000244902680A60043142680A600431826815
:104300000A600431C2680A600431F0C147460F6098
:1043100004314F460F60043157460F6004315F4649
:104320000F60043102690A60083142690A60043191
:1043300082690A600431C2690A600431034620338D
:104340004FF40076324200D0043375464FF0100629
:10435000354200D148330C46103C2360EFF309820C
:104360000A600431EFF308820A60043172460A6081
:104370000431EFF314820A60034B60460149034A9B
:104380009847FEE78C18001091430000D8010010F8
:1043900000B589B0059004910392002307931B4850
:1043A000FEF792FC059B302B09D0402B0DD0202B23
:1043B00011D11748FEF788FC164B079311E01648F9
:1043C000FEF782FC154B07930BE01548FEF77CFCCB
:1043D000144B079305E01448FEF776FC134B079344
:1043E00000BF1348FEF770FC00F02AF81148FEF7F2
:1043F0006BFC114BDA6B0023009300230F490798E5
:10440000FEF7DCFD00BF09B05DF804FB5C25010090
:10441000882501003E01FF80982501003F01FF80B3
:10442000A42501004001FF80B02501003D01FF806F
:10443000BC250100C82501008C180010E8250100EA
:1044400030B587B0002305930CE0059B9B00444AE0
:1044500013441B681A4605994248FEF735FC059B34
:1044600001330593059B0C2BEFDD3D4B586B3C4B0B
:104470009C6B3B4BDD6B3A4B1B6C394A526C384999
:10448000896C0291019200932B46224601463648E0
:10449000FEF71AFC354B1B6819463548FEF714FC2D
:1044A000324BD86A314B9B6ADCB2304B9B6A1B0A99
:1044B000DDB22E4B9B6A1B0C9BB22C4A126B2B4914
:1044C000C96B0291019200932B462246014629486E
:1044D000FEF7FAFB254B9B6A03F08003002B05D007
:1044E000224B5B6B19462448FEF7EEFB1F4B9B6A81
:1044F00003F40043002B05D01C4B9B6B19461F484F
:10450000FEF7E2FB164BDB6C03F00803002B10D028
:104510001B48FEF7D9FB124B1B6D03F00103002B68
:1045200003D01848FEF7D0FB09E01748FEF7CCFB94
:1045300005E01648FEF7C8FB1348FEF7C5FB084B1D
:10454000DB6C03F00403002B03D01148FEF7BCFB27
:1045500002E01048FEF7B8FB00BF07B030BD00BF57
:104560008C180010F82501000826010000ED00E07D
:104570005426010064260100B0260100C026010077
:10458000D0260100E0260100F026010004270100EA
:10459000142701002027010000B583B0134B0193BD
:1045A000124BC3F1805303F500430093009BB3F516
:1045B000806F28BF4FF480630D4A13600C4B1B685B
:1045C000009AD31A019A13440A4A1360084B1B68D5
:1045D000009AD31A0093084A009B1360074A019B74
:1045E000136000F06BF800F0A9F800BFA8290010D4
:1045F0000411001000110010EC0F0010E80F001063
:1046000008B5144B144A1A60124B0B225A60114B16
:104610001C22DA600F4B114A9A600E4801F04EFFDF
:1046200002460F4B1A600F4B0F4A1A600D4B0B22BC
:104630005A600C4B1C22DA600A4B0C4A9A600948FB
:1046400001F03CFF02460A4B1A6005F0A5FF00BFCF
:1046500008BD00BFC01000102C270100A4100010DE
:10466000A0100010F01000103C270100D410001022
:10467000D010001008B5FCF761F80346184608BDD5
:1046800000B583B00190054B1B684FF0FF31184611
:1046900001F03AFF00BF03B05DF804FBA01000106A
:1046A00000B583B00190044B1B68184601F056FF1B
:1046B00000BF03B05DF804FBA010001008B500F0C7
:1046C00013F800F00DF800F033F800BF08BD08B58E
:1046D000FFF796FF00F006F8FFF7CCFF00BF08BD1C
:1046E00000BF704700BF704784B0104B9B680293B7
:1046F0004FF080530193002303930CE0039B9B0036
:10470000029A1A44039B9B0001990B4412681A6099
:10471000039B01330393039B302BEFDD034B4FF0DF
:1047200080529A6000BF04B0704700BF00ED00E007
:1047300008B500F055FC00BF08BD000000B585B00D
:10474000204B214A1A601F4B0B225A601D4B1C2222
:10475000DA601C4B1D4A9A601D4B1E4A1A611C4BA5
:104760004FF480525A611A4B4422DA60184B1A4AAD
:104770009A60174B18229A61154B184A1A60114813
:1047800001F09CFE0246164B1A60114A00211548A2
:1047900002F06AFF0390039B002B07D10C4A002311
:1047A0000093002310491148FEF708FC00F03AFC82
:1047B00000230093002300220D490C48FEF7FEFB66
:1047C000FEE700BFFC18001048270100E0180010A9
:1047D0000C19001078190010341900105827010026
:1047E00030190010CF460000642701001D01018030
:1047F0008027010000B583B00190064B1B68002B99
:1048000003D0044B1B680198984700BF03B05DF8C4
:1048100004FB00BF0811001000B583B0019000F048
:104820000FF9FCE700B585B003900291039B013BB3
:10483000042B3AD801A252F823F000BF51480000DF
:104840006348000075480000874800009948000050
:10485000002300930023039A19491A48FEF7AEFB80
:104860002CE0002300930023039A17491748FEF712
:10487000A5FB23E0002300930023039A1449154865
:10488000FEF79CFB1AE0002300930023039A1249D1
:104890001248FEF793FB11E0002300930023039AD4
:1048A0000F491048FEF78AFB08E00023009300231D
:1048B000039A0D490D48FEF781FB00BFFEE700BFDC
:1048C0009827010025010280BC27010026010280F3
:1048D000E4270100270102801C2801002801028032
:1048E000582801002A010280982801000001028056
:1048F00082B00190019B0633052B1BD801A252F810
:1049000023F000BF314900002D4900002949000073
:1049100025490000214900001D490000074B0AE01D
:10492000074B08E0074B06E0074B04E0074B02E0AB
:10493000074B00E0074B184602B07047B42801004F
:10494000CC280100002901001829010028290100B4
:10495000402901005C29010000B585B0039003984F
:10496000FFF7C6FF0146039A002300930023034884
:10497000FEF724FB00BF05B05DF804FB31010180A8
:1049800000B585B0039002910298FFF7B1FF014690
:10499000039A0023009300230348FEF70FFB00BF98
:1049A00005B05DF804FB00BF3201018000B585B0A1
:1049B000039002910298FFF79BFF0146039A0023A0
:1049C000009300230348FEF7F9FA00BF05B05DF835
:1049D00004FB00BF3301018000B585B00390029154
:1049E0000298FFF785FF0146039A002300930023F6
:1049F0000348FEF7E3FA00BF05B05DF804FB00BF13
:104A00003801018000B583B002F05EFE019001988C
:104A1000FFF7F0FE00BF03B05DF804FB08B5FCF73C
:104A2000EDFF00BF08BD08B5FEF7B4F9FCF79CFF29
:104A3000FFF7F4FFFCF7BEFFFEF7C6F900BF08BDA5
:104A400008B5024B1B689847FBE700BFD401001074
:104A50001EF0040F0CBFEFF30880EFF309808169AB
:104A600011F8021CD9B901B590E80F10E047BDE874
:104A700000508CE80300194B93E80600914208BFF0
:104A8000704719B12CE9F00FC1F838C01A60906B6B
:104A9000B0E8F00F80F309886FF0020E7047104AFB
:104AA00013689942FAD801B552F821C00FC8E047FF
:104AB000BDE80050CCF80000704701B501F0DAFE07
:104AC000BDE80140EFF3098CD5E701B501F070FEB8
:104AD000BDE80140EFF3098CCDE70000EC010010C8
:104AE0008C2A010082B0EFF305830193019B002B18
:104AF00014BF01230023DBB2184602B0704782B016
:104B0000EFF310830193019B002B05D1EFF3118389
:104B10000093009B002B01D0012300E0002303F051
:104B20000103DBB2184602B0704700B583B00190B4
:104B3000019B002B03D00199132002F069FA002396
:104B4000184603B05DF804FB00B585B00190FFF78F
:104B5000C9FF0346002B04D1FFF7D1FF0346002B0A
:104B600008D06FF005010020FFF70AFF6FF0050382
:104B7000039307E0019B02930298054B9C4600DFDC
:104B800003460393039B184605B05DF804FB00BF82
:104B90002B4B0000034BDB681B0A03F0070318468E
:104BA000704700BF00ED00E082B0EFF30583019392
:104BB000019B002B14BF01230023DBB2184602B077
:104BC000704782B0EFF310830193019B002B05D156
:104BD000EFF311830093009B002B01D0012300E031
:104BE000002303F00103DBB2184602B07047000057
:104BF00000B583B0124BFF2283F82220104B93F8AC
:104C00002230DBB263F0FF03DB43B3FA83F3DBB2A2
:104C1000C3F120030193FFF7BDFF0090009A019BB1
:104C20009A4202D3009B01330193FE22019B9A40DA
:104C3000034BD2B2DA7700BF03B05DF804FB00BFCC
:104C400000ED00E008B5434B1B7A012B01D1002396
:104C500057E1404B1B7A002B06D04FF0FF30FFF797
:104C60007BFE4FF0FF334CE13B4B5B6D472B06D88F
:104C70006FF00A00FFF770FE4FF0FF3341E1364B53
:104C8000DB68002B03D0344B1B8A002B06D14FF07E
:104C9000FF30FFF761FE4FF0FF3332E19C2200212D
:104CA0002E4806F033F92C4BDB682A4AD3652A4B91
:104CB0001A8A284BA3F85420274B9B68254A136473
:104CC000254BDA6A244B1B6B1946104600F0DFF9BE
:104CD0000346002B04D0204BDB6A1E4AC2F880300A
:104CE0001D4B5A691C4B9B691946104600F0CFF9C1
:104CF0000346002B04D0184B5B69164A536704E047
:104D0000144BD3F88030134A5367134BDA69124BB4
:104D10001B6A1946104600F0BAF90346002B04D06E
:104D20000D4BDB690B4A936704E00A4BD3F88030E4
:104D3000084A9367084B5A6A074B9B6A1946104604
:104D400000F0A5F90346002B0AD0034B5B6A014A29
:104D5000D3670AE0D80100108C290100E00100109F
:104D6000694BD3F88030684AD367684B5B6B002B84
:104D700014D0664B586B654B5B6B1968634B5B6B70
:104D80009A68624B5B6BDB6800F0DCFA0346002B31
:104D900004D05E4B5B6B5C4AC2F884305B4B9B6B10
:104DA000002B14D0594B986B584B9B6B1968574B81
:104DB0009B6B9A68554B9B6BDB6800F0C3FA03460C
:104DC000002B04D0514B9B6B4F4AC2F888304F4B9D
:104DD000DB6B002B14D04D4BD86B4C4BDB6B196845
:104DE0004A4BDB6B9A68494BDB6BDB6800F0AAFA35
:104DF0000346002B04D0454BDB6B434AC2F88C3092
:104E0000424B1B6C002B14D0404B186C3F4B1B6C5F
:104E100019683E4B1B6C9A683C4B1B6CDB6800F0BE
:104E200091FA0346002B04D0384B1B6C364AC2F86B
:104E30009030364B5B6C002B14D0344B586C334B9A
:104E40005B6C1968314B5B6C9A68304B5B6CDB6850
:104E500000F078FA0346002B04D02C4B5B6C2A4AF6
:104E6000C2F89430294B9B6C002B14D0274B986CC4
:104E7000264B9B6C1968254B9B6C9A68234B9B6C4B
:104E8000DB6800F05FFA0346002B04D01F4B9B6CDD
:104E90001D4AC2F898301D4BDB6C002B14D01B4B05
:104EA000D86C1A4BDB6C1968184BDB6C9A68174B83
:104EB000DB6CDB6800F046FA0346002B04D0134B92
:104EC000DB6C114AC2F89C30104B1B6D002B14D0C8
:104ED0000E4B186D0D4B1B6D19680C4B1B6D9A68B2
:104EE0000A4B1B6DDB6800F02DFA0346002B04D043
:104EF000064B1B6D044AC2F8A030034B01221A7204
:104F00000023184608BD00BFD80100108C290100FD
:104F100000B585B02E4B1B7A012B06D06FF0060032
:104F2000FFF71AFD4FF0FF334DE002F053FB03464D
:104F300083F00103DBB2002B06D04FF0FF30FFF708
:104F40000BFD4FF0FF333EE0FFF752FE214B5B6855
:104F50002149184602F0B2FC0346002B06D04FF060
:104F6000FF30FFF7F9FC4FF0FF332CE002F0FAFCC2
:104F70000246174B1A6102F0D5FC184801F0FAFD01
:104F80000390039B002B06D14FF0FF30FFF7E4FCAA
:104F90004FF0FF3317E0039801F0BCFF0D4B1B6887
:104FA00003F00103002B05D002230293029B83F33D
:104FB000148804E003230193019B83F31488044BBA
:104FC00002221A720023184605B05DF804FB00BFE8
:104FD000D80100108C290100CB4A0000F401001018
:104FE00000B583B000F03EF8FFF7DEFD0346002B6E
:104FF00004D1FFF7E6FD0346002B07D06FF0050054
:10500000FFF7AAFC6FF00503019304E0044B9C46F4
:1050100000DF03460193019B184603B05DF804FBD3
:10502000454C000000B583B0FFF7BEFD0346002BE2
:1050300004D1FFF7C6FD0346002B07D06FF0050033
:10504000FFF78AFC6FF00503019304E0044B9C46D4
:1050500000DF03460193019B184603B05DF804FB93
:10506000114F000000BF704782B00190019B1846AD
:1050700002B0704784B001900091019B009A1344E4
:105080000393039B0293029B184604B0704700B53C
:1050900085B001900091019B002B0CD0019B03F087
:1050A0000703002B07D1009B03F00703002B02D15D
:1050B000009B172B01D8002323E00198FFF7D4FFB2
:1050C0000390039B009A1A60039B10225A600821E8
:1050D0000198FFF7CFFF0290009B083B194601980B
:1050E000FFF7C8FF0246029B1A60029B1B68002262
:1050F0001A60029B1B6810225A60029B00225A60B1
:105100000123184605B05DF804FB10B58AB0039082
:1051100002910192039B002B07D0029B002B04D02D
:10512000019B23F00303002B01D0002374E0029BBA
:1051300008330793079B073323F0070307930821DE
:105140000398FFF797FF0890089B1B681A46089B77
:10515000D31A0693089B5B6823F00303069AD31ABD
:105160000693069A079B9A4208D2089B1B680893ED
:10517000089B1B68002BE7D100234DE000BF03987C
:10518000FFF772FF03465968079A0A445A6003986A
:10519000FFF76AFF03461B68083B19460398FFF7B1
:1051A00069FF0590059B5C680398FFF75DFF034668
:1051B0005B689C4206D20398FFF756FF03465A6885
:1051C000059B5A60089B5B68002B0AD1079A019BDC
:1051D0001A43089B5A6008210898FFF74BFF099073
:1051E00019E0089B5B6823F0030319460898FFF752
:1051F00041FF0590089B1A68059B1A60079A019B5E
:105200001A43059B5A60089B059A1A600821059865
:10521000FFF730FF0990099B18460AB010BD00B592
:1052200087B001900091019B002B02D0009B002BC6
:1052300001D1002334E000210098FFF71BFF039009
:10524000039B083B03930023049308210198FFF775
:1052500011FF059009E0059B0493059B1B680593CE
:10526000059B002B01D100231AE0059A039B9A426B
:10527000F1D10198FFF7F8FE03465968059A526884
:1052800022F003028A1A5A60049B002B03D1059B6B
:1052900000225A6003E0059B1A68049B1A600123F0
:1052A000184607B05DF804FB10B483B00190019B71
:1052B00053E8002F511C43E8001000B1F8E71446F2
:1052C0002346184603B010BC704710B483B0019059
:1052D000019B53E8002F511E43E8001000B1F8E78E
:1052E00014462346184603B010BC704710B483B070
:1052F0000190019B53E8002F12B9BFF32F8F04E0F8
:10530000116843E8001000B1F4E71446234618463C
:1053100003B010BC704710B483B001900091019BA2
:10532000009A19681160BFF35F8F53E8001F10687F
:105330008842F6D143E8002404B1F2E700BF03B08D
:1053400010BC704786B00390029101920093039BBA
:10535000002B08D0029B002B05D0019B002B02D014
:10536000009B002B01D100232CE0039B029A1A60C2
:10537000039B00225A60039B019A9A60039B009A48
:10538000DA60039B009A5A61029B019A02FB03F3C5
:10539000009A1A44039B1A61009B059308E0059A42
:1053A000019B13440493059B049A1A60049B059384
:1053B000029B013B0293029B002BF0D1059B002234
:1053C0001A600123184606B0704700B585B00190F9
:1053D000019B002B01D100230EE0019B14331846E2
:1053E000FFF784FF0390039B002B04D0019B043341
:1053F0001846FFF759FF039B184605B05DF804FBFC
:1054000000B583B001900091019B002B09D0019B56
:10541000DB68009A9A4204D3019B1B69009A9A4266
:1054200002D36FF003030BE0019B1433009918467D
:10543000FFF771FF019B04331846FFF746FF002377
:10544000184603B05DF804FB82B0EFF305830193C7
:10545000019B002B14BF01230023DBB2184602B0CE
:10546000704782B0EFF310830193019B002B05D1AD
:10547000EFF311830093009B002B01D0012300E088
:10548000002303F00103DBB2184602B0704710B4EA
:1054900083B001900B468DF80330019B9DF80320EB
:1054A000D3E84F1FC3E8402F00B1F9E7CCB2234641
:1054B000184603B010BC704710B483B00190019B34
:1054C00053E8002F511C43E8001000B1F8E71446E0
:1054D0002346184603B010BC704710B483B0019047
:1054E000019B53E8002F12B9BFF32F8F04E0511E28
:1054F00043E8001000B1F4E714462346184603B011
:1055000010BC704782B00190019B184602B07047F2
:1055100082B00190019B184602B07047014B5B6955
:1055200018467047D801001000B585B00190009171
:10553000019B1B6B002B2ED0019B1B6B0393002345
:10554000029304E0039B0293039B5B680393039B1A
:10555000002B05D0039BDA78009BDB789A42F1D3CD
:10556000009B039A5A60009B029A9A60039B002B4F
:1055700003D0039B009A9A6002E0019B009ADA62D2
:10558000029B002B03D0029B009A5A600FE0019B04
:10559000009A1A630BE0009B00225A60009B0022D5
:1055A0009A60019B009ADA62019B009A1A63019B40
:1055B00028331846FFF780FF00BF05B05DF804FBF5
:1055C00000B587B00190019B28331846FFF785FF8F
:1055D0000490049B002B17D0019BDB6A05930FE01E
:1055E000059B023301211846FFF751FF03468DF852
:1055F0000F309DF80F30002B09D0059B9B68059359
:10560000059B002BECD103E00023059300E000BFD5
:10561000059B184607B05DF804FB82B0019000912D
:10562000009B5B68002B05D0009B5B68009A92682A
:105630009A6003E0009B9A68019BDA62009B9B687A
:10564000002B05D0009B9B68009A52685A6003E0CB
:10565000009B5A68019B1A6300BF02B0704700B5F7
:1056600089B00190019B9B78002B51D0019BDB6896
:10567000079301990798FFF7D0FF019B00221A704A
:10568000079B0C3301991846FFF7BAFE079B9B68EE
:10569000002B00F08480079B9B685B78932B7ED166
:1056A000079B0C331846FFF790FE0290029B002BDD
:1056B00075D00798FFF72CFF0346184601F05AFAF9
:1056C000059000220021059801F082FC059801F068
:1056D000D9FB0490049B08331B680693029B03F1DB
:1056E0000C00079B5B6A1A46069905F037FB029B84
:1056F00007221A70029B00229A70049B0C331B68CD
:10570000DAB2029BDA7002990798FFF70DFF46E0C4
:10571000019B9B680793019B5B680693079B9B68B3
:10572000002B38D0079B9B685B78832B33D107987D
:10573000FFF7EEFE0346184601F01CFA0590002222
:105740000021059801F044FC059801F09BFB0490B2
:10575000049B08331B680393019B03F10C01079B17
:105760005B6A1A46039805F0F9FA049B0C331B6830
:10577000002B06D0049B0C331B681A46019BDB7878
:105780001370019B00221A70079B0C330199184675
:10579000FFF736FE03E001990798FFF7C5FE00BF4B
:1057A00009B05DF804FB000000B58DB003900291D4
:1057B0000192039B002B02D0029B002B06D16FF0BD
:1057C00003010020FFF708F90023F4E0029B0333F4
:1057D00023F003030C330793039BB3FA83F3DBB289
:1057E0001A46079BB3FA83F3DBB213441F2B06D888
:1057F0006FF003010020FFF7EFF80023DBE0039BCD
:10580000079A02FB03F30693019B002B46D0019BF2
:105810001B680893019B9B680B93019B1B690A9370
:10582000019B5B6905930B9B002B0FD00B9B03F037
:105830000303002B03D1019BDB68332B11D86FF0DE
:1058400008010020FFF7C8F80023B4E0019BDB68E3
:10585000002B06D06FF008010020FFF7BDF80023F1
:10586000A9E00A9B002B0FD00A9B03F00303002B37
:1058700003D1059A069B9A4216D26FF009010020C7
:10588000FFF7AAF8002396E0059B002B0CD06FF0E1
:1058900009010020FFF7A0F800238CE00023089303
:1058A00000230B9300230A930B9B002B19D1444B2D
:1058B000D3F8A030002B07D0414BD3F8A0301846C6
:1058C000FFF783FD0B9008E03D4BD3F880300122B9
:1058D00034211846FFF719FC0B9001238DF827306F
:1058E00002E000238DF827300B9B002B35D00A9B5C
:1058F000002B32D1324BDB6F002206991846FFF79E
:1059000004FC0A900A9B002B1CD19DF8273003F061
:105910000103002B13D02A4BD3F8A030002B07D063
:10592000274BD3F8A0300B991846FFF769FD06E026
:10593000234BD3F880300B991846FFF770FC0023F7
:105940000B9304E0069A00210A9805F0DFFA9DF80F
:10595000273043F002038DF827300B9B002B24D017
:105960000B9B08221A700B9B9DF827209A700B9BAB
:10597000089A5A600B9B00229A600B9B029A5A620B
:105980000B9B00229A620B9B0022DA620B9B002287
:105990001A630B9B03F10C000A9B079A0399FFF70C
:1059A000D1FC074B074A1A6704E06FF0040100209E
:1059B000FFF712F80B9B18460DB05DF804FB00BF13
:1059C000D80100105F56000010B58CB00390029112
:1059D000009313468DF807300398FFF793FD0A9064
:1059E0000A9B002B06D00A9B1B78082B02D1029B36
:1059F000002B07D16FF003010A98FEF7EDFF6FF05F
:105A0000030381E00A9B9B68002B2FD00A9B9B68B5
:105A10005B78832B2AD10A98FFF77AFD0346184654
:105A200001F0A8F8099001220021099801F0D0FAAC
:105A3000099801F027FA0890089B08331B68079320
:105A40000A9B5B6A1A460299079805F087F9089B3A
:105A50000C331B68002B06D0089B0C331B681A46BE
:105A60009DF80730137000230B934CE00A9B0C3316
:105A70001846FFF7AAFC0690069B002B19D0069B40
:105A800003F10C000A9B5B6A1A46029905F066F95D
:105A9000069B07221A70069B00229A70069B9DF8AF
:105AA0000720DA7006990A98FFF73EFD00230B9352
:105AB00029E0009B002B23D00099932001F0A8FA45
:105AC0000346002B18D00A98FFF722FD0446FFF783
:105AD00025FD03461946204601F016F8EFF3098329
:105AE0000593059B0893089B0833029A1A60089B4C
:105AF0000C339DF807201A606FF001030B9302E04E
:105B00006FF002030B930B9B18460CB010BD10B541
:105B10008CB003900291019200930398FFF7F2FC7E
:105B20000A900A9B002B06D00A9B1B78082B02D1F7
:105B3000029B002B07D16FF003010A98FEF74CFF80
:105B40006FF0030390E00A98FFF73AFD0990099B74
:105B5000002B5FD009990A98FFF75FFD099B03F1BD
:105B60000C010A9B5B6A1A46029805F0F7F8019B44
:105B7000002B03D0099BDA78019B1A70099B002245
:105B80001A700A9B0C3309991846FFF739FC0A9BD7
:105B90009B68002B3BD00A9B9B685B78932B36D18C
:105BA0000A9B0C331846FFF710FC0990099B002B49
:105BB0002DD00A98FFF7ACFC0346184600F0DAFF38
:105BC000079001220021079801F002FA079801F0DE
:105BD00059F90890089B08331B680693099B03F149
:105BE0000C000A9B5B6A1A46069905F0B7F8099BF8
:105BF00007221A70099B00229A70089B0C331B68BD
:105C0000DAB2099BDA7009990A98FFF78DFC002334
:105C10000B9328E0009B002B22D00099832001F0F9
:105C2000F7F90346002B17D00A98FFF771FC0446DA
:105C3000FFF774FC03461946204600F065FFEFF3BA
:105C400009830593059B0893089B0833029A1A6001
:105C5000089B0C33019A1A606FF001030B9302E06A
:105C60006FF002030B930B9B18460CB010BD00B5F0
:105C700089B003900291009313468DF80730039882
:105C8000FFF740FC0690069B002B09D0069B1B7873
:105C9000082B05D1029B002B02D0009B002B07D0C4
:105CA0006FF003010698FEF797FE6FF0030331E0F3
:105CB000069B0C331846FFF788FB0590059B002BCD
